:1009690053797374656D2052656164792E2E2E005A
:100979004E4F524D414C204D4F44452020202020C0
:10098900004150504C49414E434553204F46462063
:10099900200020414C4C204150504C49414E434588
:1009A90053204F46460A004150504C49414E434559
:1009B90053204F4E2020200020414C4C20415050C4
:1009C9004C49414E434553204F4E0A004C49474834
:1009D9005453204F46462020202020200020414CFF
:1009E9004C204C4947485453204F46460A0046413B
:1009F9004E53204F46462020202020202020002032
:100A0900414C4C2046414E53204F46460A00414C2A
:100A19004C2046414E53204F4E202020202000419B
:100A29004C4C2046414E53204F4E0A00414C4C201D
:100A39004C4947485453204F4E20202000414C4CEC
:100A4900204C4947485453204F4E0A0044495354B7
:0D0A5900414E43202020202020202020009E
:060C980001080001090043
:100C07007F38120C767F0E120C767F01120C767FDE
:0E0C170006120C767F0C120C767F80020C7693
:0E0C76008FA0C280C281D282120C67C282227D
:090C250075F00A84E5F02430FFAB
:0E0C2E008FA0D280C281D282120C67C28222B5
:060BB3007BFF7A0979794D
:100BB9008B0B8A0C890DAB0BAA0CA90D120AF260DA
:100BC90013050DE50D7002050C14F9120AF2FF1256
:050BD9000C2E80E22259
:090BDE007BFF120C3C7F327E000B
:100BE700E4FDFCC3ED9FEC9E5015E4FBFA0BBB0044
:0F0BF700010ABA04F8BBFBF50DBD00010C80E448
:010C060022CB
:080C90008F993099FDC29922F1
:100C3C00120AF2FF600C120C90740129F9E43AFAD2
:070C4C0080EE7F0D020C9009
:0C0C8400758920759850758DFDD28E2268
:0E0C6700E4FFFE0FBF00010EBE03F8BFE9F56B
:010C7500225C
:100C5300E4F58CF58AD2B500000000000000000026
:040C630000C2B522F4
:100B7600120C5330B2FD20B2FD858C83858A8275B6
:100B86008AFF758CFFAF82AE83E4FCFD7B707A949E
:100B9600F9F8D3120B60400FAF82AE837C007D3B29
:0C0BA600120B0B8F0B8003E4F50BAF0B60
:010BB2002220
:10080000E4F5A0120C847A097969120BDE120C0748
:100810003098FD85990985090AC298E50A64317006
:1008200021D290D2917F80120C76120BB37FC0122E
:100830000C767BFF7A09798A120BB97A09799B12B7
:100840000BDEE50A64327023C290C2917F80120CE5
:1008500076120BB37FC0120C767BFF7A0979B01247
:100860000BB97BFF7A0979C1120BE0E50A6433709A
:1008700021D2917F80120C76120BB37FC0120C76BE
:100880007BFF7A0979D5120BB97BFF7A0979E612D9
:100890000BE0E50A64347021D2907F80120C76124E
:1008A0000BB37FC0120C767BFF7A0979F7120BB974
:1008B0007BFF7A0A7908120BE0E50A64357021C2E1
:1008C000907F80120C76120BB37FC0120C767BFFE8
:1008D0007A0A7917120BB97BFF7A0A7928120BE092
:1008E000E50A64367021C2917F80120C76120BB338
:1008F0007FC0120C767BFF7A0A7935120BB97BFF29
:100900007A0A7946120BE0E50A64376003020810A0
:100910007F80120C76120BB3758909E4F58AF58C89
:10092000D28C120C077FC0120C767BFF7A0A7955A5
:10093000120BB943B0047F84120C76120B768F0829
:10094000E50875F064842430FF120C2EE50875F07C
:100950000A84120C25E508120C25E508D3940A40F8
:0909600004D29780D1C29780CD2A
:03000000020A668B
:0C0A6600787FE4F6D8FD75810D020AAD22
:100AF200BB010689828A83E0225002E722BBFE0202
:090B0200E32289828A83E4932234
:100B0B00BC000BBE0029EF8DF084FFADF022E4CCCE
:100B1B00F875F008EF2FFFEE33FEEC33FCEE9DEC97
:100B2B00984005FCEE9DFE0FD5F0E9E4CEFD22EDDD
:100B3B00F8F5F0EE8420D21CFEADF075F008EF2F27
:100B4B00FFED33FD4007985006D5F0F222C398FD18
:050B5B000FD5F0EA22B5
:100B6000EB9FF5F0EA9E42F0E99D42F0EC6480C80C
:060B700064809845F022AC
:100A7200020800E493A3F8E493A34003F68001F292
:100A820008DFF48029E493A3F85407240CC8C33385
:100A9200C4540F4420C8834004F456800146F6DF54
:100AA200E4800B0102040810204080900C98E47E40
:100AB200019360BCA3FF543F30E509541FFEE49349
:100AC200A360010ECF54C025E060A840B8E493A310
:100AD200FAE493A3F8E493A3C8C582C8CAC583CA3B
:100AE200F0A3C8C582C8CAC583CADFE9DEE780BEF3
:010C9E000055
:00000001FF
